:020000042400D6
:10000000A84F002401040024050400240504002452
:10001000050400240504002405040024050400242C
:10002000050400240504002405040024050400241C
:1000300005040024050400240504002411380024CC
:1000400005040024050400240504002405040024FC
:1000500005040024050400240504002405040024EC
:1000600005040024050400240504002401210024C3
:1000700011210024212100243121002441210024C8
:100080005121002461210024712100240504002451
:1000900005040024050400240504002405040024AC
:1000A000050400240504002405040024050400249C
:1000B000050400240504002405040024050400248C
:1000C000050400240504002405040024050400247C
:1000D000050400242137002431370024413700244F
:1000E000050400240504002405040024050400245C
:1000F000050400240504002405040024050400244C
:10010000050400240504002405040024050400243B
:10011000050400240504002405040024050400242B
:100120008121002491210024A1210024B121002457
:10013000C1210024D1210024E1210024F121002447
:1001400005040024050400240504002405040024FB
:1001500005040024050400240504002405040024EB
:1001600005040024050400240504002405040024DB
:1001700005040024050400240504002405040024CB
:0C04000000F006F800F000F8FEE700BF76
:1004100000200021414A424BE2E802019A42FBDB04
:100420004049414A00240025E1E802459142FBDBB6
:100430003E4A002A08D03E483A498B18F0E8024567
:10044000E1E802459942F9DB3A493B4A002400259C
:10045000E1E802459142FBDB384A002A08D03848DF
:1004600034498B18F0E80245E1E802459942F9DB8E
:1004700072B6344880F30888334880F309883348DB
:100480003349086040F20000CCF200004EF63471AF
:10049000CEF200010860BFF34F8FBFF36F8F40F2C1
:1004A0000000C0F2F0004EF68851CEF20001086064
:1004B000BFF34F8FBFF36F8F0020E1EE100A4EF6AF
:1004C0003C71CEF200010860062080F31488BFF36F
:1004D0006F8F01F015FB01F03BFB1E491E4A1F4BBD
:1004E0009A4204DA0868106004310432F8E701F037
:1004F00037FB1B4C1B4DAC4203DA216888470434A0
:10050000F9E701F07DF9184C184DAC4203DA216887
:1005100088470434F9E7164908470000003D0024E5
:100520000000022400000000008000001C00000009
:10053000E03C00240000002000000120000000003A
:10054000FC3C0024A84F0024A85F002401000024E4
:1005500008ED00E0FC3C0024FC3C0024003D0024AD
:100560000C0400240C0400240C0400240C040024BB
:10057000711B0024000000000000000000000000CB
:1005800080F0004002E000BF81F0004142001FBF48
:100590005FEA410392EA030F7FEA226C7FEA236C51
:1005A0006AD04FEA1262D2EB1363C1BFD218414046
:1005B00048404140B8BF5B42192B88BF704710F0DC
:1005C000004F40F4000020F07F4018BF404211F07F
:1005D000004F41F4000121F07F4118BF494292EAE7
:1005E000030F3FD0A2F1010241FA03FC10EB0C0013
:1005F000C3F1200301FA03F100F0004302D54942A0
:1006000060EB4000B0F5000F13D3B0F1807F06D34C
:1006100040084FEA310102F10102FE2A51D2B1F144
:10062000004F40EBC25008BF20F0010040EA030039
:100630007047490040EB0000013A28BFB0F5000FB9
:10064000EDD2B0FA80FCACF1080CB2EB0C0200FA6F
:100650000CF0AABF00EBC25052421843BCBFD040BE
:100660001843704792F0000F81F4000106BF80F438
:1006700000000132013BB5E74FEA41037FEA226CFB
:1006800018BF7FEA236C21D092EA030F04D092F0C6
:10069000000F08BF0846704790EA010F1CBF0020FA
:1006A000704712F07F4F04D1400028BF40F0004057
:1006B000704712F100723CBF00F50000704700F077
:1006C000004343F0FE4040F4000070477FEA22629E
:1006D00016BF08467FEA23630146420206BF5FEA6F
:1006E000412390EA010F40F4800070474FF000036F
:1006F00004E000BF10F0004348BF40425FEA000C36
:1007000008BF704743F0964301464FF000001CE0DD
:1007100050EA010208BF70474FF000030AE000BF33
:1007200050EA010208BF704711F0004302D5404271
:1007300061EB41015FEA010C02BF844601460020E3
:1007400043F0B64308BFA3F18053A3F50003BCFAFE
:100750008CF2083AA3EBC25310DB01FA02FC6344AB
:1007600000FA02FCC2F12002BCF1004F20FA02F2B2
:1007700043EB020008BF20F00100704702F12002A5
:1007800001FA02FCC2F1200250EA4C0021FA02F206
:1007900043EB020008BF20EADC7070470000000055
:1007A00053B94AB9002908BF00281CBF4FF0FF31D8
:1007B0004FF0FF3000F074B9ADF1080C6DE904CED4
:1007C00000F006F8DDF804E0DDE9022304B070472C
:1007D0002DE9F047089D04468E46002B4DD18A42F4
:1007E000944669D9B2FA82F252B101FA02F3C2F127
:1007F000200120FA01F10CFA02FC41EA030E9440B8
:100800004FEA1C48210CBEFBF8F61FFA8CF708FBD8
:1008100016E341EA034306FB07F199420AD91CEBB0
:10082000030306F1FF3080F01F81994240F21C81E2
:10083000023E63445B1AA4B2B3FBF8F008FB10332A
:1008400044EA034400FB07F7A7420AD91CEB04045F
:1008500000F1FF3380F00A81A74240F2078164442F
:10086000023840EA0640E41B00261DB1D4400023B4
:10087000C5E900433146BDE8F0878B4209D9002D18
:1008800000F0EF800026C5E9000130463146BDE8A2
:10089000F087B3FA83F6002E4AD18B4202D382420C
:1008A00000F2F980841A61EB030301209E46002DBB
:1008B000E0D0C5E9004EDDE702B9FFDEB2FA82F210
:1008C000002A40F09280A1EB0C014FEA1C471FFA6E
:1008D0008CFE0126200CB1FBF7F307FB131140EA55
:1008E00001410EFB03F0884208D91CEB010103F122
:1008F000FF3802D2884200F2CB804346091AA4B2E4
:10090000B1FBF7F007FB101144EA01440EFB00FEB7
:10091000A64508D91CEB040400F1FF3102D2A6451C
:1009200000F2BB800846A4EB0E0440EA03409CE7BB
:10093000C6F12007B34022FA07FC4CEA030C20FA68
:1009400007F401FA06F31C43F9404FEA1C4900FA88
:1009500006F3B1FBF9F8200C1FFA8CFE09FB181105
:1009600040EA014108FB0EF0884202FA06F20BD978
:100970001CEB010108F1FF3A80F08880884240F2C8
:100980008580A8F102086144091AA4B2B1FBF9F00C
:1009900009FB101144EA014100FB0EFE8E4508D907
:1009A0001CEB010100F1FF346CD28E456AD902388C
:1009B000614440EA0840A0FB0294A1EB0E01A14271
:1009C000C846A64656D353D05DB1B3EB080261EBDF
:1009D0000E0101FA07F722FA06F3F1401F43C5E9B9
:1009E000007100263146BDE8F087C2F12003D840EF
:1009F0000CFA02FC21FA03F3914001434FEA1C4731
:100A00001FFA8CFEB3FBF7F007FB10360B0C43EA22
:100A1000064300FB0EF69E4204FA02F408D91CEBD2
:100A2000030300F1FF382FD29E422DD902386344D0
:100A30009B1B89B2B3FBF7F607FB163341EA034170
:100A400006FB0EF38B4208D91CEB010106F1FF38BF
:100A500016D28B4214D9023E6144C91A46EA0046B6
:100A600038E72E46284605E70646E3E61846F8E648
:100A70004B45A9D2B9EB020864EB0C0E0138A3E791
:100A80004646EAE7204694E74046D1E7D0467BE772
:100A9000023B614432E7304609E76444023842E7EA
:100AA000704700BF000000000000000000000000D0
:100AB00000B585B003460A46ADF8063013468DF8FA
:100AC0000530BDF806301B099BB28DF80F30BDF81C
:100AD0000630DBB203F00F038DF80E309DF80F30B7
:100AE000184601F005FD0290029B002B14D0029BDA
:100AF0001A689DF80E305B00194603238B40DB43D8
:100B00001A409DF8053003F003039DF80E104900CC
:100B10008B401A43029B1A6000BF05B05DF804FBCE
:100B200000B585B003460A46ADF8063013468DF889
:100B30000530BDF806301B099BB28DF80F30BDF8AB
:100B40000630DBB203F00F038DF80E309DF80F3046
:100B5000184601F0CDFC0290029B002B13D0029BA3
:100B60005A689DF80E30012101FA03F3DB431A4065
:100B70009DF8053003F001019DF80E3001FA03F3F2
:100B80001A43029B5A6000BF05B05DF804FB00BF2A
:100B900000B585B003460A46ADF8063013468DF819
:100BA0000530BDF806301B099BB28DF80F30BDF83B
:100BB0000630DBB203F00F038DF80E309DF80F30D6
:100BC000184601F095FC0290029B002B14D0029B6A
:100BD0009A689DF80E305B00194603238B40DB4377
:100BE0001A409DF8053003F003039DF80E104900EC
:100BF0008B401A43029B9A6000BF05B05DF804FB6E
:100C000000B585B003460A46ADF8063013468DF8A8
:100C10000530BDF806301B099BB28DF80F30BDF8CA
:100C20000630DBB203F00F038DF80E309DF80F3065
:100C3000184601F05DFC0290029B002B14D0029B31
:100C4000DA689DF80E305B00194603238B40DB43C6
:100C50001A409DF8053003F003039DF80E1049007B
:100C60008B401A43029BDA6000BF05B05DF804FBBD
:100C700000B585B003460A46ADF8063013468DF838
:100C80000530BDF806301B099BB28DF80F30BDF85A
:100C90000630DBB203F00F038DF80E309DF80F30F5
:100CA000184601F025FC0290029B002B30D09DF8E5
:100CB0000E30072B15D8029B1A6A9DF80E309B0048
:100CC00019460F238B40DB431A409DF8053003F093
:100CD0000F039DF80E1089008B401A43029B1A6285
:100CE00016E0029B5A6A9DF80E30083B9B0019469D
:100CF0000F238B40DB431A409DF8053003F00F03B0
:100D00009DF80E10083989008B401A43029B5A62E5
:100D100000BF05B05DF804FB00000000000000000B
:100D200000B585B003460A46ADF8063013468DF887
:100D30000530BDF806301B099BB28DF80F30BDF8A9
:100D40000630DBB203F00F038DF80E309DF80F3044
:100D5000184601F0CDFB0290029B002B14D0029BA1
:100D60009A6A9DF80E305B00194603238B40DB43E3
:100D70001A409DF8053003F003039DF80E1049005A
:100D80008B401A43029B9A6200BF05B05DF804FBDA
:100D900000B585B003460A46ADF8063013468DF817
:100DA0000530BDF806301B099BB28DF80F30BDF839
:100DB0000630DBB203F00F038DF80E309DF80F30D4
:100DC000184601F095FB0290029B002B13D0029B6A
:100DD000DA6A9DF80E30012101FA03F3DB431A4071
:100DE0009DF8053003F001019DF80E3001FA03F380
:100DF0001A43029BDA6200BF05B05DF804FB00BF36
:100E000000B585B003460A46ADF8063013468DF8A6
:100E10000530BDF806301B099BB28DF80F30BDF8C8
:100E20000630DBB203F00F038DF80E309DF80F3063
:100E3000184601F05DFB0290029B002B13D0029B31
:100E40001A6B9DF80E30012101FA03F3DB431A40BF
:100E50009DF8053003F001019DF80E3001FA03F30F
:100E60001A43029B1A6300BF05B05DF804FB00BF84
:100E700000B585B003460A46ADF8063013468DF836
:100E80000530BDF806301B099BB28DF80F30BDF858
:100E90000630DBB203F00F038DF80E309DF80F30F3
:100EA000184601F025FB0290029B002B13D0029BF9
:100EB0005A6B9DF80E30012101FA03F3DB431A400F
:100EC0009DF8053003F001019DF80E3001FA03F39F
:100ED0001A43029B5A6300BF05B05DF804FB00BFD4
:100EE00000B583B003460091ADF80630009B9B0827
:100EF00003F00103DAB2BDF8063011461846FFF7D9
:100F00000FFE009BDB0803F00303DAB2BDF80630E6
:100F100011461846FFF73CFE009B5B0903F00303F4
:100F2000DAB2BDF8063011461846FFF769FE009B9D
:100F3000DB09DBB203F00F03DAB2BDF8063011466D
:100F40001846FFF795FE009BDB0A03F00303DAB2B5
:100F5000BDF8063011461846FFF7E2FE009B5B0B1A
:100F600003F00103DAB2BDF8063011461846FFF768
:100F70000FFF009B9B0B03F00103DAB2BDF80630B4
:100F800011461846FFF73CFF009BDB0B03F0010303
:100F9000DAB2BDF8063011461846FFF769FF009B2C
:100FA000DBB203F00303DAB2BDF80630114618468F
:100FB000FFF77EFD00BF03B05DF804FB00000000FA
:100FC00008B509214320FFF78BFF09214220FFF7D5
:100FD00087FF09214120FFF783FF08214420FFF705
:100FE0007FFF42F202310420FFF77AFF40F2023124
:100FF0000520FFF775FF42F202313820FFF770FF3E
:1010000040F202313720FFF76BFF42F282410D20A0
:10101000FFF766FF03211120FFF762FF0321122073
:10102000FFF75EFF03211720FFF75AFF03211D2062
:10103000FFF756FF03212120FFF752FF032126204F
:10104000FFF74EFF03212520FFF74AFF0321292048
:10105000FFF746FF03212A20FFF742FF03212B2041
:10106000FFF73EFF40F212212E20FFF739FF40F23A
:1010700012212F20FFF734FF40F212213020FFF71A
:101080002FFF40F212213120FFF72AFF42F2022106
:101090007020FFF725FF42F202217120FFF720FFA9
:1010A00040F212213320FFF71BFF40F212213420BF
:1010B000FFF716FF40F212218120FFF711FF40F2E7
:1010C00012218020FFF70CFF40F212218320FFF74E
:1010D00007FF40F212218220FFF702FF42F20221B5
:1010E0008820FFF7FDFE42F202218920FFF7F8FE7B
:1010F00040F212218520FFF7F3FE40F212218420F6
:10110000FFF7EEFE42F292214520FFF7E9FE42F2A0
:1011100092214620FFF7E4FE42F292214720FFF79A
:10112000DFFE42F292213C20FFF7DAFE42F29221EA
:101130003B20FFF7D5FE42F292213A20FFF7D0FE86
:1011400042F292213D20FFF7CBFE42F202116E20C7
:10115000FFF7C6FE42F202116F20FFF7C1FE42F216
:1011600082017220FFF7BCFE40F201617C20FFF794
:10117000B7FE40F201617D20FFF7B2FE42F28231FC
:101180007E20FFF7ADFE40F282317F20FFF7A8FE00
:1011900000BF08BD000000000000000000000000CB
:1011A00000B583B00346ADF80630BDF8063003F055
:1011B0000103002B01D000F0E3FCBDF8063003F082
:1011C0000203002B01D001F073F9BDF8063003F0E3
:1011D0000403002B01D0FFF7F3FEBDF8063003F047
:1011E0001003002B01D002F02BFC00BF03B05DF810
:1011F00004FB00BF00000000000000000000000031
:1012000000B585B00346ADF80630BDF806301B09C1
:101210009BB28DF80F30BDF80630DBB203F00F0340
:101220008DF80E309DF80F30184601F061F90290EC
:10123000029B002B0DD0029B1A699DF80E300121F4
:1012400001FA03F31340002B14BF01230023DBB288
:1012500000E00023184605B05DF804FB0000000024
:1012600000B585B00346ADF80630BDF806301B0961
:101270009BB28DF80F30BDF80630DBB203F00F03E0
:101280008DF80E309DF80F30184601F031F90290BC
:10129000029B002B05D09DF80E3001229A40029B44
:1012A0009A6100BF05B05DF804FB00BF00000000BC
:1012B00000B585B00346ADF80630BDF806301B0911
:1012C0009BB28DF80F30BDF80630DBB203F00F0390
:1012D0008DF80E309DF80F30184601F009F9029094
:1012E000029B002B06D09DF80E304FF480329A40BE
:1012F000029B9A6100BF05B05DF804FB000000008E
:1013000000B58FB0059004910392029300230C93D3
:1013100000230B93049B0A9300230D930EE00C9B78
:101320005B000C93049B03F001030C9A13440C9391
:10133000049B5B0804930D9B01330D930D9B072BBE
:10134000EDDD00230D9311E00B9B5B000B93039BE2
:101350001B6803F001030B9A13440B93039B1B6858
:101360005A08039B1A600D9B01330D930D9B0F2BA5
:10137000EADD0C9B9B011A46059B13440B9A9203D2
:101380001344099306AA01230093029B182109988C
:1013900000F01EF8DDE90623134603F47F030493EF
:1013A000DDE9062313469AB2039B1A600A9A049B4E
:1013B0009A4205D0029B1B780433DAB2029B1A7062
:1013C00000BF0FB05DF804FB00000000000000004B
:1013D0002DE9F0439DB00390019200930B468DF8E8
:1013E0000B30984A10AB1268114619800233120C68
:1013F0001A7000230D9300230E9300230F930023F4
:101400000A9300230B9300230C9306231A930023C3
:1014100019930023189300231793002311938A4BE9
:1014200005AC1D460FCD0FC42B6823600023169317
:10143000002315939DF80B30202B0CD810238DF82A
:1014400040309DF80B30103BDBB28DF8413000236B
:101450008DF842300BE010238DF8403010238DF8CA
:1014600041309DF80B30203BDBB28DF842309DF8C7
:101470000B30102B09D89DF80B308DF8403000232D
:101480008DF8413000238DF842309DF89030012BCB
:101490000AD108238DF8403010238DF84130002305
:1014A0008DF842301E231A9300231B9328E041201D
:1014B000FFF7FEFE1B9B012B02D14320FFF7D0FE5E
:1014C0001A9B9A1C1B9B9A4202D14320FFF7F0FE05
:1014D0001B9B012B0EDD039B03F00103002B03D0AC
:1014E0004220FFF7BDFE02E04220FFF7E1FE039B32
:1014F0005B0803934120FFF7B3FE1B9B01331B9353
:101500001A9B1A1D1B9B9A42D1D84120FFF7D0FE8F
:10151000022002F0C5FA05E04120FFF7A1FE4120BC
:10152000FFF7C6FE4420FFF76BFE0346002BF3D007
:101530009DF89030002B23D14120FFF791FE4120F0
:10154000FFF7B6FE414B1B681A69414B1B681340FD
:10155000002B14BF01230023DBB21793099B179ABA
:1015600053401193089B0993079A119B534008938A
:10157000069B0793059A119B53400693119B059375
:1015800000231B931FE0334B1B68334A12689A6198
:10159000169B5B0016934120FFF78AFE2B4B1B68BE
:1015A0001A692B4B1B681340002B14BF0123002327
:1015B000DBB28DF843309DF94330169A13441693ED
:1015C0001B9B01331B939DF80B301B9A9A42DADB6D
:1015D00000231B931AE04120FFF742FE199B5B009A
:1015E00019934120FFF764FE184B1B681A69184BCA
:1015F0001B681340002B14BF01230023DBB21A46E3
:10160000199B134419931B9B01331B931B9B042BA6
:10161000E1DD4120FFF724FE9DF80B30013B012264
:1016200002FA03F314939DF89030002B4FD19DF8EC
:101630000B30013B012202FA03F3149300231393AE
:1016400038E000BFE03A0024E43A0024003D0024E2
:10165000043D0024083D00240C3D0024149A169BF0
:101660001340002B14BF01230023DBB28DF843305D
:10167000099A9DF9433053401193089B0993079AA7
:10168000119B53400893069B0793059A119B534067
:101690000693119B05939DF94320139B02FA03F3D4
:1016A0001A46159B13441593149B5B101493139BBC
:1016B000013313939DF80B30139A9A42CEDB159B9E
:1016C000002298469146019BC3E9008938E09DF8C5
:1016D0000B30013B012202FA03F31493002312930F
:1016E00022E0149A169B1340002B14BF0123002301
:1016F000DBB28DF84330099A9DF943305340119382
:10170000089B0993079A119B53400893069B0793E4
:10171000059A119B53400693119B0593149B5B10F4
:101720001493129B013312939DF80B30129A9A4234
:10173000D7DB169B00221E461746019BC3E90067B4
:101740001E2002F0ADF90023189304231B9320E020
:101750001B9B9B0070336B4453F85C3C002B0CBF0D
:1017600001230023DBB21A461B9B9B0070336B44A2
:1017700043F85C2C189B5B0018931B9B9B007033F9
:101780006B4453F85C3C189A134318931B9B013B22
:101790001B931B9B002BDBDA179BDAB2009B1A70A2
:1017A000199A189B9A4205D0009B1B780233DAB233
:1017B000009B1A7000BF1DB0BDE8F0830000000060
:1017C00008B54120FFF74CFD052002F069F94120E2
:1017D000FFF76EFD052002F063F94120FFF740FDA1
:1017E000052002F05DF94320FFF762FD1E2002F0A4
:1017F00057F900BF08BD00BF000000000000000056
:1018000000B585B002F05CF91F20FFF7C9FC8E48D7
:1018100001F076F98C4800F043F98B4801F050FA5A
:10182000FFF7CEFFC82002F03BF910228749864817
:1018300001F07EFB04238DF80F3004238DF80E3069
:101840009DF80F30184600F053FE0346804A13609F
:101850009DF80E30012202FA03F37E4A136004233E
:101860008DF80D3001238DF80C309DF80D301846A1
:1018700000F03EFE0346784A13609DF80C300122CA
:1018800002FA03F3754A13601520754B754A00215F
:10189000FFF736FD0E2274496B4801F049FB022226
:1018A0007249694801F044FB2320B9216C4B6D4A11
:1018B000FFF726FD1C20B921694B6A4AFFF720FD7E
:1018C0003120674B674A0021FFF71AFD654B1B6803
:1018D000002B17D00E20624B624A0021FFF710FD4B
:1018E00015205F4B5F4A0021FFF70AFD1C20B9213C
:1018F0005B4B5C4AFFF704FD3120594B594A0021EC
:10190000FFF7FEFC1C20A121554B564AFFF7F8FCBF
:101910003120534B534A0D21FFF7F2FC514B1B680A
:1019200003F03F03524A136031204D4B4D4A0E21C4
:10193000FFF7E6FC4B4B1B681B0B03F00F034D4AF4
:1019400013601C20A321464B464AFFF7D9FC3120E7
:10195000434B444A0421FFF7D3FC424B1B68464AE1
:10196000136031203E4B3F4A0521FFF7C9FC3D4B38
:101970001B681B041A46404B1B6813443E4A136005
:101980003D4B1B68013B3D4A13603D4B00221A60F2
:1019900009E03A4B1B685B08384A1360384B1B68F8
:1019A0000133374A1360354B1B68002BF1D13120CE
:1019B0002B4B2C4A0121FFF7A3FC2A4B1B68314A11
:1019C00013601C20A721264B264AFFF799FC3120E3
:1019D000234B244A0921FFF793FC3120204B214A55
:1019E0000A21FFF78DFC31201D4B1E4A0B21FFF70A
:1019F00087FC3822244B1A60234B18681C4B1B6849
:101A0000D9B200230093164B204AFFF7E1FC194B93
:101A10001B680C2BEDD11D4BD3E900231046194652
:101A2000FEF776FE06EE900A134B1B6807EE903A1F
:101A3000B8EE677AC6EE877A9FED157A67EE877AF9
:101A4000144BC3ED007AD4E7F83E0024F83A0024A2
:101A5000003D0024043D0024083D00240C3D0024EA
:101A60001C3D0024103D00240C3B00241C3B0024A2
:101A7000143D0024303D0024203D0024243D00245A
:101A8000283D00242C3D0024183D0024383D00242E
:101A90000000B443403D00240000000000000000AE
:101AA00000B583B001900F21019801F041F80021A9
:101AB000019801F04DF80021019801F061F8002132
:101AC000019801F075F84FF41641019801F088F87B
:101AD0000021019801F094F80021019801F0A8F884
:101AE0000021019801F0BCF80021019801F0D0F824
:101AF00000BF03B05DF804FB000000000000000020
:101B0000124B5B6903F40033002B1BD1BFF34F8FE3
:101B100000BFBFF36F8F00BF0C4B0022C3F85022F1
:101B2000BFF34F8F00BFBFF36F8F00BF074B5B69E1
:101B3000064A43F400335361BFF34F8F00BFBFF336
:101B40006F8F00E000BF00BF704700BF00ED00E0F6
:101B500000BF70470000000000000000000000000F
:101B600000BF7047000000000000000000000000FF
:101B7000FEE700BF000000000000000000000000C1
:101B800000B58DB04FF0FF3301934FF088431A6DCD
:101B90004FF08841019B13430B654FF088431A6D4A
:101BA000019BDB434FF0884113400B654FF08843A6
:101BB0001B6D00BF4FF0FF3302934FF088435A6D07
:101BC0004FF08841029B13434B654FF088435A6D99
:101BD000029BDB434FF0884113404B654FF0884335
:101BE0005B6D00BFB94B03934FF088439A6D4FF084
:101BF0008841039B13438B654FF088439A6D039B89
:101C0000DB434FF0884113408B654FF088439B6D59
:101C100000BF4FF0FF3304934FF08843DA6D4FF06D
:101C20008841049B1343CB654FF08843DA6D049BD6
:101C3000DB434FF088411340CB654FF08843DB6DA9
:101C400000BF4FF0FF3305934FF088431A6E4FF0FB
:101C50008841059B13430B664FF088431A6E059B22
:101C6000DB434FF0884113400B664FF088431B6EF7
:101C700000BF4FF0FF3306934FF088439A6E4FF04A
:101C80008841069B13438B664FF088439A6E069BF0
:101C9000DB434FF0884113408B664FF088439B6EC7
:101CA00000BF4FF0FF3307934FF08843DA6E4FF0D9
:101CB0008841079B1343CB664FF08843DA6E079B3E
:101CC000DB434FF088411340CB664FF08843DB6E17
:101CD00000BF00238DF827304FF4806308934FF046
:101CE0008843D3F880204FF08841089B1343C1F804
:101CF00080309DF82730002B14D04FF08843D3F864
:101D0000A0204FF08841089B1343C1F8A0304FF04A
:101D10008843D3F8C0204FF08841089B1343C1F893
:101D2000C03015E04FF08843D3F8A020089BDB4378
:101D30004FF088411340C1F8A0304FF08843D3F8EA
:101D4000C020089BDB434FF088411340C1F8C030EE
:101D50004FF08843D3F8803000238DF82F300123D3
:101D60000A934FF08843D3F888204FF088410A9BAC
:101D70001343C1F888309DF82F30002B14D04FF05A
:101D80008843D3F8A8204FF088410A9B1343C1F839
:101D9000A8304FF08843D3F8C8204FF088410A9B01
:101DA0001343C1F8C83015E04FF08843D3F8A8209A
:101DB0000A9BDB434FF088411340C1F8A8304FF035
:101DC0008843D3F8C8200A9BDB434FF08841134077
:101DD000C1F8C8304FF08843D3F8883000BF4FF0C7
:101DE00088431B6803F48063002BF8D04FF08843CE
:101DF0001B684FF0884243F48033136000BF4FF0FC
:101E000088431B6803F40033002BF8D04FF088435D
:101E1000DB684FF0884243F00303D3602C4B2D4A1C
:101E20009A604FF088431B684FF0884243F08073FC
:101E3000136000BF4FF088431B6803F00073002B52
:101E4000F8D04FF08843DB684FF0884243F40073CA
:101E5000D3601F4B204A9A624FF088431B684FF0B3
:101E6000884243F08053136000BF4FF088431B68E3
:101E700003F00053002BF8D04FF0884300229A6003
:101E80004FF08843154A5A624FF088434FF0805212
:101E90009A624FF088434FF4C062DA6201F018FE94
:101EA0004FF088439B684FF0884243F007039360EC
:101EB00000BF4FF088439B6803F03803382BF8D1FC
:101EC00000BF00BF0DB05DF804FB00BF00FEFFFFC8
:101ED00000D8014018200840140002005545440075
:101EE00082B00346ADF80630BDF90630002B0CDB9E
:101EF000BDF8063003F01F020549BDF906305B0945
:101F0000012000FA02F241F8232000BF02B070471E
:101F100000E100E000000000000000000000000000
:101F200082B003460091ADF80630BDF90630002BB3
:101F30000ADB009BDAB20C49BDF906301201D2B2BD
:101F40000B4483F800230BE0009BDAB20749BDF88D
:101F5000063003F00F03043B1201D2B20B441A7691
:101F600000BF02B0704700BF00E100E000ED00E0FC
:101F700000B583B00346ADF80630BDF9063018460B
:101F8000FFF7AEFF00BF03B05DF804FB00000000E8
:101F900000B583B003460091ADF80630BDF90630B8
:101FA00000991846FFF7BCFF00BF03B05DF804FBC3
:101FB00082B00190019B1B68032B07D9019B1B6812
:101FC000072B0CD9019B1B680B2B08D8019B1A69A6
:101FD000019B9B683D2101FA02F29A6008E0019B97
:101FE0001A69019B9B683D2101FA02F2DA6000BF89
:101FF00000BF02B0704700BF0000000000000000FA
:1020000000B583B00190019BDB681A68019BDB6817
:1020100022F01F021A600198FFF7CAFF00BF03B049
:102020005DF804FB0000000000000000000000005C
:1020300000B585B00190019B1B68032B07D9019B5C
:102040001B68072B0ED9019B1B680B2B0AD8019B21
:102050009B681A68019B1B6922FA03F303F03D0396
:10206000039309E0019B9B685A68019B1B6922FA54
:1020700003F303F03D030393039B9A08019BDB6882
:102080001B685B081340002B33D0019B1B68032B9C
:1020900007D9019B1B68072B0CD9019B1B680B2BD5
:1020A00008D8019B1A69019B9B68039901FA02F207
:1020B0009A6007E0019B1A69019B9B68039901FAEA
:1020C00002F2DA60019B1B680C4ADB0013445B6878
:1020D000002B0ED0019B1B68084ADB0013445A6892
:1020E000019B1B680549DB000B449B68039918465C
:1020F000904700BF05B05DF804FB00BF443D0024DD
:1021000008B50248FFF794FF00BF08BD203B00243C
:1021100008B50248FFF78CFF00BF08BD383B00241C
:1021200008B50248FFF784FF00BF08BD503B0024FC
:1021300008B50248FFF77CFF00BF08BD683B0024DC
:1021400008B50248FFF774FF00BF08BD803B0024BC
:1021500008B50248FFF76CFF00BF08BD983B00249C
:1021600008B50248FFF764FF00BF08BDB03B00247C
:1021700008B50248FFF75CFF00BF08BDC83B00245C
:1021800008B50248FFF754FF00BF08BDE03B00243C
:1021900008B50248FFF74CFF00BF08BDF83B00241C
:1021A00008B50248FFF744FF00BF08BD103C0024FB
:1021B00008B50248FFF73CFF00BF08BD283C0024DB
:1021C00008B50248FFF734FF00BF08BD403C0024BB
:1021D00008B50248FFF72CFF00BF08BD583C00249B
:1021E00008B50248FFF724FF00BF08BD703C00247B
:1021F00008B50248FFF71CFF00BF08BD883C00245B
:1022000000B591B00390029101920093039B102BB3
:1022100004D100230F930F230E9319E0039B112B7E
:1022200004D100230F9307230E9311E0039B122B7D
:1022300004D108230F930F230E9309E0039B0F2B68
:1022400004D8039B0F93039B0E9301E0002323E12B
:102250000F9B0D931AE101220D9B02FA03F30C93DD
:102260008F4B1A680C9B1340002B40F00C810D9A89
:1022700013465B001344DB008A4A13440B93884ADD
:102280000D9BDB001344019A5A60854A0D9BDB00CD
:102290001344009A9A60824B1A680C9B1343804A3D
:1022A00013600C9BDBB2002B44D001238DF82B3044
:1022B0009DF82B308DF82A304FF4803309934FF07E
:1022C00088439A6F4FF08841099B13438B679DF8B1
:1022D0002A30002B14D04FF08843D3F898204FF0C9
:1022E0008841099B1343C1F898304FF08843D3F8D5
:1022F000B8204FF08841099B1343C1F8B83015E06E
:102300004FF08843D3F89820099BDB434FF0884176
:102310001340C1F898304FF08843D3F8B820099B98
:10232000DB434FF088411340C1F8B8304FF0884389
:102330009B6F00BF0C9B03F47F43002B44D0012311
:102340008DF823309DF823308DF822304FF4803300
:1023500007934FF088431A6F4FF08841079B134350
:102360000B679DF82230002B14D04FF08843D3F830
:1023700090204FF08841079B1343C1F890304FF0F5
:102380008843D3F8B0204FF08841079B1343C1F82E
:10239000B03015E04FF08843D3F89020079BDB4323
:1023A0004FF088411340C1F890304FF08843D3F884
:1023B000B020079BDB434FF088411340C1F8B03099
:1023C0004FF088431B6F00BF354B1B68002B44D078
:1023D00001238DF81B309DF81B308DF81A304FF417
:1023E000003305934FF088439A6F4FF08841059B67
:1023F00013438B679DF81A30002B14D04FF088439D
:10240000D3F898204FF08841059B1343C1F89830CA
:102410004FF08843D3F8B8204FF08841059B134311
:10242000C1F8B83015E04FF08843D3F89820059BE9
:10243000DB434FF088411340C1F898304FF0884398
:10244000D3F8B820059BDB434FF088411340C1F817
:10245000B8304FF088439B6F00BF0B9BB3F914302B
:1024600002991846FFF794FD0B9BB3F914301846F8
:10247000FFF77EFD0B98FFF7C3FD0B9BDB68002287
:102480001A600B9B08E00D9B01330D930D9A0E9B78
:102490009A427FF6E0AE0023184611B05DF804FBC7
:1024A000443D0024203B0024000000000000000008
:1024B00008B500F005F800BF08BD00BF000000002F
:1024C00082B040F2FF1301934FF088439A6F4FF0B0
:1024D0008841019B13438B674FF088439B6F00BF7C
:1024E00002B0704700000000000000000000000083
:1024F00082B003468DF807309DF80730082B28D8A6
:1025000001A252F823F000BF2D250024332500241A
:10251000372500243B2500243F25002443250024A3
:10252000472500244B2500244F2500244FF09043DD
:1025300010E00A4B0EE00A4B0CE00A4B0AE00A4B93
:1025400008E00A4B06E00A4B04E00A4B02E00A4BA3
:1025500000E00023184602B0704700BF00040048A6
:1025600000080048000C0048001000480014004813
:1025700000180048001C004800200048000000002F
:1025800082B00346ADF80630BDF90630002B0CDBF7
:10259000BDF8063003F01F020549BDF906305B099E
:1025A000012000FA02F241F8232000BF02B0704778
:1025B00000E100E00000000000000000000000005A
:1025C00082B003460091ADF80630BDF90630002B0D
:1025D0000ADB009BDAB20C49BDF906301201D2B217
:1025E0000B4483F800230BE0009BDAB20749BDF8E7
:1025F000063003F00F03043B1201D2B20B441A76EB
:1026000000BF02B0704700BF00E100E000ED00E055
:1026100000B583B00346ADF80630BDF90630184664
:10262000FFF7AEFF00BF03B05DF804FB0000000041
:1026300000B583B003460091ADF80630BDF9063011
:1026400000991846FFF7BCFF00BF03B05DF804FB1C
:1026500082B001900091019BDB68009A9A6000BFF4
:1026600002B0704700000000000000000000000001
:1026700082B001900091019BDB68009ADA6000BF94
:1026800002B07047000000000000000000000000E1
:1026900082B001900091019BDB68009A5A6000BFF4
:1026A00002B07047000000000000000000000000C1
:1026B00082B00190019BDB685B68184602B07047EE
:1026C00082B001900091019BDB68009A1A6000BF04
:1026D00002B0704700000000000000000000000091
:1026E00082B00190019BDB681A68019BDB6842F0B5
:1026F00001021A6000BF02B0704700BF0000000076
:1027000082B00190019BDB681A68019BDB6822F0B4
:1027100001021A6000BF019BDB681B6803F0010324
:10272000002BF8D100BF00BF02B0704700000000CE
:1027300082B001900091019B5B68009A1A6000BF13
:1027400002B0704700000000000000000000000020
:1027500000B583B0019001F093F902460B46019950
:10276000C1E9002300BF03B05DF804FB00000000D6
:1027700070B584B06E4686E80F00DDE9022313438E
:102780000FD001F07DF9DDE90023841A61EB030528
:10279000DDE90223A242AB4134BF01230023DBB2B7
:1027A00000E00023184604B070BD00BF0000000028
:1027B00084B00190019B00229A60019B0022DA60A4
:1027C000019B00221A61019B00221A75019B0022C5
:1027D0009A61019B0022DA61019B00221A62019B2F
:1027E000002283F82420019B0F229A62019B002281
:1027F00083F82C20019B002283F82D20019B0022CE
:1028000083F82E20019B002283F82F20019B0022B9
:1028100083F83020019B002283F83120019B0022A5
:1028200083F83220019B00225A63019B01229A63A4
:10283000019B0022DA63019B0F221A64019B002294
:102840005A64019B00229A64019B4FF41642DA6499
:10285000019B002283F85020019B002283F8512025
:10286000019B002283F85220019B002283F8532011
:10287000019B00225A65019B00229A65019B002260
:10288000DA65019B00221A66019B00225A66019BB1
:10289000002283F8682001994FF000024FF00003F6
:1028A000C1E91C2301994FF000024FF00003C1E978
:1028B0001E23019B002283F8802000238DF80F3017
:1028C0000CE09DF80F30019A20339B001344002246
:1028D0005A609DF80F3001338DF80F309DF80F309E
:1028E000032BEED900BF00BF04B07047000000000A
:1028F00000B585B001900091019B0393039B9B6CF5
:102900001846FFF7D5FE0246039B1A61009B03F0B1
:102910000803002B0AD0039BD3F88C30002B14D073
:10292000039BD3F88C30039898470EE0009B03F08C
:102930002003002B09D0039BD3F88430002B04D054
:10294000039BD3F8843003989847039B00221A75A1
:1029500000BF05B05DF804FB0000000000000000AF
:1029600000B585B001900091019B0393039B5B6CC4
:102970001846FFF79DFE0246039B1A62009B03F078
:102980000803002B0AD0039BD3F88C30002B14D003
:10299000039BD3F88C30039898470EE0009B03F01C
:1029A0002003002B09D0039BD3F88830002B04D0E0
:1029B000039BD3F8883003989847039B002283F841
:1029C000242000BF05B05DF804FB00BF000000003C
:1029D00082B00190019B9B68591C019A91601A7802
:1029E000019B1B689A62019B1B695A1E019B1A611D
:1029F000019B1B681A68019B1B6842F040021A6029
:102A000000BF02B0704700BF0000000000000000DF
:102A100082B00190019B1B689A68019B1B6842F47D
:102A200000029A6000BF02B0704700BF00000000C3
:102A300000B583B00190019B9A6C019B1B691946FC
:102A40001046FFF725FE019B9A6C019B9B68194677
:102A50001046FFF70DFE019B9B6C1846FFF740FEEA
:102A600000BF03B05DF804FB0000000000000000A0
:102A700000B583B00190019B70331846FFF768FEE4
:102A8000019B9B68591C019A91601A78019B1B68F5
:102A90009A62019B1B695A1E019B1A6121E0019BEE
:102AA0001B68DB6903F04003002B0DD0019B9B6882
:102AB000591C019A91601A78019B1B689A62019BCC
:102AC0001B695A1E019B1A61019B70330FCBFFF7E4
:102AD0004FFE0346002B04D0019B012283F8802087
:102AE00004E0019B1B69002BD9D100BF00BF03B0DC
:102AF0005DF804FB00000000000000000000000082
:102B000000B583B00190019800F07AFC0246019B69
:102B10001A60019800F094FC0246019B5A600198EB
:102B2000FFF746FE00BF03B05DF804FB00000000A5
:102B300084B001900091019B9B6A0393019B009AD2
:102B40009A62039B184604B0704700BF0000000063
:102B500084B001900B468DF80330019B93F82C3024
:102B60008DF80F30019B9DF8032083F82C209DF8F1
:102B70000F30184604B0704700000000000000004D
:102B800084B001900B468DF80330019B93F82D30F3
:102B90008DF80F30019B9DF8032083F82D209DF8C0
:102BA0000F30184604B0704700000000000000001D
:102BB00084B001900B468DF80330019B93F82E30C2
:102BC0008DF80F30019B9DF8032083F82E209DF88F
:102BD0000F30184604B070470000000000000000ED
:102BE00084B001900091019BDB6C0393019B009AE0
:102BF000DA64039B184604B0704700BF0000000071
:102C000084B001900B468DF80330019B93F850304F
:102C10008DF80F30019B9DF8032083F850209DF81C
:102C20000F30184604B0704700000000000000009C
:102C300084B001900B468DF80330019B93F851301E
:102C40008DF80F30019B9DF8032083F851209DF8EB
:102C50000F30184604B0704700000000000000006C
:102C600084B001900B468DF80330019B93F85230ED
:102C70008DF80F30019B9DF8032083F852209DF8BA
:102C80000F30184604B0704700000000000000003C
:102C900084B001900B468DF80330019B93F85330BC
:102CA0008DF80F30019B9DF8032083F853209DF889
:102CB0000F30184604B0704700000000000000000C
:102CC00000B58DB0019000230B9300230A93019867
:102CD00000F0D6FB019B93F850301A468F4B53F807
:102CE00022300893019B5A68089BB2FBF3F2019BC8
:102CF000DB6CB2FBF3F30993019B93F85230012B89
:102D000008D1099B23F007035A00099B03F007032E
:102D100013430993019B1B68099ADA60019B93F89E
:102D20005020019B1B68DA62019B93F85130002B05
:102D30000CD00B9B43F4A0630B93019B93F8513091
:102D4000022B03D10B9B43F400730B93019B93F86D
:102D50005230012B03D10B9B43F400430B93019B97
:102D600093F82E30002B13D00B9B43F000530B93A2
:102D7000019B93F82F305B0603F060630A9A1343BC
:102D80000A93019B93F830305B070A9A13430A9326
:102D9000019B93F82C30042B12D0019800F0A0FC7A
:102DA0000346ADF81E30019B9A6ABDF91E301146EC
:102DB0001846FFF73DFCBDF91E301846FFF728FC0A
:102DC000019B93F82C30052B0ED1019B5A6D019B72
:102DD000DA65019B5A6D019B1A66019B5A6D019B36
:102DE0009B6D1A44019B5A66019B93F82C30022B71
:102DF00004D0019B93F82C30032B31D1019B986BAD
:102E0000019B196C019B464AFFF7FAF90246019BA8
:102E10005A64019B5A6C019B1B6824331946104667
:102E2000FFF716FC019800F03BFC0690019B5B6CE1
:102E300006991846FFF77CFC019BDB6B1B0443F0F3
:102E400010030593059B43F480630593019B5B6C22
:102E500005991846FFF734FC0A9B43F040030A9398
:102E6000019B93F82D30022B04D0019B93F82D3059
:102E7000032B31D1019B586B019B196C019B294A93
:102E8000FFF7BEF90246019B9A64019B9A6C019B75
:102E90001B68283319461046FFF7DAFB019800F04B
:102EA000DFFB0490019B9B6C04991846FFF740FCE4
:102EB000019BDB6B1B0443F050030393039B43F420
:102EC00080630393019B9B6C03991846FFF7F8FB03
:102ED0000A9B43F080030A93019B1B680B9A1A60BC
:102EE000019B93F853301A46019B1B68120B5A60E2
:102EF000019B1B680A9A42F001029A60019B1B68C1
:102F00000B9A42F00D021A60019B1A68019B1B6824
:102F1000D2691A6200BF0DB05DF804FBA03C00242A
:102F200061290024F12800240000000000000000B6
:102F300000B585B0039002910192039B002283F8B3
:102F40008020019B002B50D0039B70331846FFF765
:102F5000FFFB039B01221A75039B029A9A60039B55
:102F6000019ADA60039B019A1A61039B93F82D3052
:102F7000022B04D0039B93F82D30032B03D103982D
:102F8000FFF756FD14E0039B93F82D30042B03D17B
:102F90000398FFF76DFD0BE0039B93F82E30002B99
:102FA00003D00398FFF734FD02E00398FFF710FD0C
:102FB000039B93F82D30002B12D0039B93F82D30F8
:102FC000022B12D10CE0039B70330FCBFFF7D0FB29
:102FD0000346002B04D0039B012283F8802004E0E9
:102FE000039B1B7DDBB2012BEDD0039B93F82D30AF
:102FF000012B04D0039B93F82D30032B02D1039BAC
:10300000DB6804E0039BDA68039B1B69D31A18464C
:1030100005B05DF804FB00BF0000000000000000E8
:1030200000B589B00190019B1B68DB690493019B8B
:103030001B68049A1A62019B1B681B680793019B1B
:103040001B689B680693079B03F04003002B2CD062
:10305000049B03F04003002B27D0019B9B68002BAF
:1030600023D0019B1B69002B0ED0019B9B68591C30
:10307000019A91601A78019B1B689A62019B1B69F7
:103080005A1E019B1A6110E0079B23F0400307932F
:10309000019BD3F88430002B04D0019BD3F88430FB
:1030A00001989847019B00221A75079B03F02003A3
:1030B000002B60D0049B03F02003002B5BD0019B0E
:1030C00093F82C30052B29D1019B1B68586A019B72
:1030D000DB6D591C019AD165C2B21A70019BDA6D81
:1030E000019B5B6E9A4203D1019B5A6D019BDA658D
:1030F000019BDA6D019B1B6E9A423CD1019B1B6EBA
:103100005A1C019B1A66019B1A6E019B5B6E9A42C8
:1031100031D1019B5A6D019B1A662CE0019B9B6982
:10312000002B28D0019B1B6A002B24D0019B1B681D
:10313000586A019B9B69591C019A9161C2B21A702D
:10314000019B1B6A5A1E019B1A62019B1B6A002B82
:1031500011D1079B23F020030793019BD3F88830FC
:10316000002B04D0019BD3F8883001989847019B2D
:10317000002283F82420069B03F40003002B3CD09C
:10318000049B03F00063002B37D0019B9B68002B4E
:1031900033D000238DF8173028E0019B1B69002BEA
:1031A00011D1069B23F400030693019BD3F88430CE
:1031B000002B04D0019BD3F8843001989847019BE1
:1031C00000221A750DE0019B9B68591C019A9160C1
:1031D0001A78019B1B689A62019B1B695A1E019B0E
:1031E0001A619DF8173001338DF81730019B93F861
:1031F00032309DF817209A42CFD3069B03F08053BC
:10320000002B50D0049B03F08063002B4BD0019B1C
:103210009B69002B47D000238DF8173029E0019BD4
:103220001B68586A019B9B69591C019A9161C2B243
:103230001A70019B1B6A5A1E019B1A62019B1B6A32
:10324000002B11D1069B23F080530693019BD3F8EA
:103250008830002B04D0019BD3F888300198984720
:10326000019B002283F824209DF8173001338DF84C
:103270001730019B93F831309DF817209A42CED336
:10328000019B1B6A002B0ED0019B1B6A019A92F8CE
:103290003120934207D2069B23F080530693079B6D
:1032A00043F020030793079B03F01003002B67D024
:1032B000049B03F01003002B62D0019B93F82C3089
:1032C000002B04D0019B93F82C30012B20D1019BC3
:1032D0001B6A002B53D0019B1A6A019BDB699A423F
:1032E0004DD2079B23F010030793019B022283F822
:1032F0008020019BD3F88830002B04D0019BD3F8A9
:10330000883001989847019B002283F8242036E0FA
:10331000019B93F82C30022B04D0019B93F82C30A6
:10332000032B2DD1019B5B6C1846FFF7C1F903906D
:10333000039B002B24D0019BDB69039A9A421FD286
:10334000019B039A1A62019B5B6C1846FFF7D8F940
:10335000079B23F010030793019BD3F88830002BC1
:1033600004D0019BD3F8883001989847019B022232
:1033700083F88020019B002283F8242000E000BF16
:10338000079B03F00103002B18D0049B03F00203FA
:10339000002B09D1049B03F00403002B04D1049BF0
:1033A00003F00803002B09D0019BD3F88C30002BCD
:1033B00004D0019BD3F88C3001989847079B03F405
:1033C0008073002B0ED0049B03F00103002B09D067
:1033D000019BD3F89030002B04D0019BD3F89030A0
:1033E00001989847019B1B68079A1A60019B1B680C
:1033F000069A9A6000BF09B05DF804FB0000000067
:1034000084B00190019B094A934202D1084B039377
:1034100008E0019B074A934202D1074B039301E066
:10342000064B0393039B184604B07047C83D002425
:10343000006C0042603E0024006C004000700040C0
:1034400084B00190019B094A934202D1084B039337
:1034500008E0019B074A934202D1054B039301E028
:10346000034B0393039B184604B07047C83D0024E8
:10347000005A6202603E00240000000000000000CC
:1034800088B00190019B714A934247D101238DF886
:103490001F309DF81F308DF81E304FF000630693EB
:1034A0004FF08843D3F888204FF08841069B1343A0
:1034B000C1F888309DF81E30002B14D04FF088439F
:1034C000D3F8A8204FF08841069B1343C1F8A830D9
:1034D0004FF08843D3F8C8204FF08841069B134330
:1034E000C1F8C83015E04FF08843D3F8A820069BF8
:1034F000DB434FF088411340C1F8A8304FF08843B8
:10350000D3F8C820069BDB434FF088411340C1F835
:10351000C8304FF08843D3F8883093E0019B4C4A81
:10352000934247D101238DF817309DF817308DF85D
:1035300016304FF0006304934FF08843D3F8802097
:103540004FF08841049B1343C1F880309DF816303A
:10355000002B14D04FF08843D3F8A0204FF08841BF
:10356000049B1343C1F8A0304FF08843D3F8C02028
:103570004FF08841049B1343C1F8C03015E04FF071
:103580008843D3F8A020049BDB434FF088411340CD
:10359000C1F8A0304FF08843D3F8C020049BDB4330
:1035A0004FF088411340C1F8C0304FF08843D3F842
:1035B000803047E001238DF80F309DF80F308DF8F3
:1035C0000E304FF0805302934FF08843D3F88020A1
:1035D0004FF08841029B1343C1F880309DF80E30B4
:1035E000002B14D04FF08843D3F8A0204FF088412F
:1035F000029B1343C1F8A0304FF08843D3F8C0209A
:103600004FF08841029B1343C1F8C03015E04FF0E2
:103610008843D3F8A020029BDB434FF0884113403E
:10362000C1F8A0304FF08843D3F8C020029BDB43A1
:103630004FF088411340C1F8C0304FF08843D3F8B1
:10364000803000BF00BF08B0704700BFC83D0024F5
:10365000603E0024000000000000000000000000A8
:1036600084B00190019B094A934202D1192303932C
:1036700008E0019B064A934202D11B23039301E019
:103680001D230393039B184604B07047C83D0024D4
:10369000603E002400000000000000000000000068
:1036A00084B00190019B094A934202D118230393ED
:1036B00008E0019B064A934202D11A23039301E0DA
:1036C0001C230393039B184604B07047C83D002495
:1036D000603E002400000000000000000000000028
:1036E00084B00190019B0B4A934203D12523ADF88E
:1036F0000E300AE0019B084A934203D12623ADF81D
:103700000E3002E02723ADF80E30BDF90E3018461A
:1037100004B07047C83D0024603E00240000000053
:1037200008B50248FFF77CFC00BF08BDC83D002477
:1037300008B50248FFF774FC00BF08BD603E0024D6
:1037400008B50248FFF76CFC00BF08BDF83E002436
:1037500082B003460091ADF80630BDF90630002B6B
:103760000ADB009BDAB20C49BDF906301201D2B275
:103770000B4483F800230BE0009BDAB20749BDF845
:10378000063003F00F03043B1201D2B20B441A7649
:1037900000BF02B0704700BF00E100E000ED00E0B4
:1037A00000B583B00190019B013BB3F1807F01D351
:1037B00001230FE0094A019B013B53600F214FF0A9
:1037C000FF30FFF7C5FF054B00229A60034B07222D
:1037D0001A600023184603B05DF804FB10E000E017
:1037E00000B583B00190019B1B695A1C019B1A61B3
:1037F000019B5B69002B03D0019B5B690198984793
:1038000000BF03B05DF804FB0000000000000000F2
:1038100008B50248FFF7E4FF00BF08BD903F002451
:1038200082B00190019B0A4A1A600A4B1A68019BF8
:103830009A60019B0F225A60019B0022DA60019B73
:1038400000221A61019B00225A6100BF02B070473A
:1038500010E000E0FC3C002400000000000000003C
:1038600084B001900091019B5B680393019B009AD7
:103870005A60039B184604B0704700BF0000000068
:1038800084B001900091019BDB680393019B009A37
:10389000DA60039B184604B0704700BF00000000C8
:1038A00000B583B00190019BDB681846FFF778FFF5
:1038B000019B5B6819464FF0FF30FFF749FF00BFDF
:1038C00003B05DF804FB00BF000000000000000032
:1038D0002DE9F00F8CB00790079BDB680020009368
:1038E0000190079B1B689B68002002930390009B3C
:1038F0000298191A019B039863EB0002CDE90A12A2
:10390000079B1B69002298469146079BDB680022B3
:103910009A4693461AF101064BF1000706FB09F29D
:1039200008FB07F31344A8FB06452B441D46CDE9CD
:103930000845CDE90845DDE90A01DDE908238418D9
:10394000049441EB03030593DDE904231046194673
:103950000CB0BDE8F00F7047000000000000000050
:103960002DE9F04F83B0019000910099002923D0F8
:10397000009900200E4607460199896800200C46F0
:10398000054604FB07F006FB05F10144A6FB0423F2
:1039900019440B4612F1FF3A43F1FF3B0C4A4FF03A
:1039A000000350465946FCF7FBFE02460B4612F157
:1039B000010843F1000903E04FF000084FF000094F
:1039C00042464B461046194603B0BDE8F08F00BF93
:1039D00040420F0000000000000000000000000056
:1039E000F0B587B0019000910198FFF771FFCDE924
:1039F000040100990198FFF7B3FFCDE9020100BF70
:103A00000198FFF765FF06460F46DDE90401DDE991
:103A10000223841841EB0305A64277EB0503EFD39D
:103A200000BF00BF07B0F0BD0000000000000000B4
:103A300062B600BF00BF7047000000000000000039
:103A400008B50B48FFF7ECFE04210948FFF708FF13
:103A5000084B1B68084AA2FB03239B09194604482C
:103A6000FFF70EFF0248FFF71BFF00BF08BD00BFB6
:103A7000903F0024FC3C0024D34D62100000000065
:103A800008B50448FFF724FF02460B4610461946C6
:103A900008BD00BF903F00240000000000000000AF
:103AA00000B583B0019001990348FFF799FF00BF6B
:103AB00003B05DF804FB00BF903F0024000000004D
:103AC00008B5FFF7B5FF00BF08BD00BF000000004C
:103AD0005FF800F00100000000000000000000009E
:103AE00000000000010000000100000001000000D3
:103AF000010000000100000048656C6C6F20576FEA
:103B0000726C642121210A0D00000000526573656A
:103B100074207374617475730A0D00000A0D00003F
:103B200000000000004400480040004810400048E9
:103B3000000000000B0000000100000004440048E9
:103B40000040004828400048060000000C0000002B
:103B5000020000000844004800400048404000487F
:103B6000100000000D000000030000000C4400489D
:103B70000040004858400048160000000E000000B9
:103B80000400000010440048004000487040004815
:103B9000000000000F000000050000001444004871
:103BA0000040004888400048060000001000000067
:103BB000060000001844004800400048A0400048AB
:103BC0001000000011000000070000001C44004825
:103BD00000400048B84000481600000012000000F5
:103BE0000800000020440048004000441040004409
:103BF00000000000380000000900000024440048D4
:103C00000040004428400044060000003900000045
:103C10000A0000002844004800400044404000449E
:103C2000100000003A0000000B0000002C44004887
:103C30000040004458400044160000003B000000D3
:103C40000C00000030440048004000447040004434
:103C5000000000003C0000000D000000344400485B
:103C60000040004488400044060000003D00000081
:103C70000E0000003844004800400044A0400044CA
:103C8000100000003E0000000F0000003C4400480F
:103C900000400044B8400044160000003F0000000F
:103CA0000100000002000000040000000600000007
:103CB000080000000A0000000C00000010000000D6
:103CC0002000000040000000800000000001000013
:083CD00000CBFF7F01000000A2
:103CE000044B4FF400621A60034B4FF400621A60F9
:0C3CF00000BF704700180042001C00429A
:043CFC0000A3E1112F
:0400000524000401CE
:00000001FF
